{
  "_format": "hh-sol-artifact-1",
  "contractName": "Helper",
  "sourceName": "contracts/Helper.sol",
  "abi": [
    {
      "anonymous": false,
      "inputs": [
        {
          "indexed": false,
          "internalType": "uint8",
          "name": "version",
          "type": "uint8"
        }
      ],
      "name": "Initialized",
      "type": "event"
    },
    {
      "anonymous": false,
      "inputs": [
        {
          "indexed": true,
          "internalType": "address",
          "name": "previousOwner",
          "type": "address"
        },
        {
          "indexed": true,
          "internalType": "address",
          "name": "newOwner",
          "type": "address"
        }
      ],
      "name": "OwnershipTransferStarted",
      "type": "event"
    },
    {
      "anonymous": false,
      "inputs": [
        {
          "indexed": true,
          "internalType": "address",
          "name": "previousOwner",
          "type": "address"
        },
        {
          "indexed": true,
          "internalType": "address",
          "name": "newOwner",
          "type": "address"
        }
      ],
      "name": "OwnershipTransferred",
      "type": "event"
    },
    {
      "inputs": [],
      "name": "acceptOwnership",
      "outputs": [],
      "stateMutability": "nonpayable",
      "type": "function"
    },
    {
      "inputs": [
        {
          "internalType": "address",
          "name": "router",
          "type": "address"
        }
      ],
      "name": "initialize",
      "outputs": [],
      "stateMutability": "nonpayable",
      "type": "function"
    },
    {
      "inputs": [],
      "name": "owner",
      "outputs": [
        {
          "internalType": "address",
          "name": "",
          "type": "address"
        }
      ],
      "stateMutability": "view",
      "type": "function"
    },
    {
      "inputs": [],
      "name": "pendingOwner",
      "outputs": [
        {
          "internalType": "address",
          "name": "",
          "type": "address"
        }
      ],
      "stateMutability": "view",
      "type": "function"
    },
    {
      "inputs": [],
      "name": "renounceOwnership",
      "outputs": [],
      "stateMutability": "nonpayable",
      "type": "function"
    },
    {
      "inputs": [
        {
          "internalType": "contract IUniswapV2Pair",
          "name": "pair",
          "type": "address"
        },
        {
          "internalType": "address",
          "name": "tokenA",
          "type": "address"
        },
        {
          "internalType": "uint256",
          "name": "singleAmount",
          "type": "uint256"
        },
        {
          "internalType": "address",
          "name": "to",
          "type": "address"
        },
        {
          "internalType": "uint256",
          "name": "deadline",
          "type": "uint256"
        }
      ],
      "name": "singleTokenAddLiquidity",
      "outputs": [],
      "stateMutability": "nonpayable",
      "type": "function"
    },
    {
      "inputs": [
        {
          "internalType": "address",
          "name": "newOwner",
          "type": "address"
        }
      ],
      "name": "transferOwnership",
      "outputs": [],
      "stateMutability": "nonpayable",
      "type": "function"
    },
    {
      "inputs": [],
      "name": "uniswapV2Router",
      "outputs": [
        {
          "internalType": "contract IUniswapV2Router",
          "name": "",
          "type": "address"
        }
      ],
      "stateMutability": "view",
      "type": "function"
    }
  ],
  "bytecode": "0x608060405234801561001057600080fd5b50611eb2806100206000396000f3fe608060405234801561001057600080fd5b50600436106100885760003560e01c80638da5cb5b1161005b5780638da5cb5b146100db578063c4d66de8146100f9578063e30c397814610115578063f2fde38b1461013357610088565b80631694505e1461008d5780635a5706f5146100ab578063715018a6146100c757806379ba5097146100d1575b600080fd5b61009561014f565b6040516100a291906110f6565b60405180910390f35b6100c560048036038101906100c091906111d7565b610175565b005b6100cf610710565b005b6100d9610724565b005b6100e36107bf565b6040516100f09190611261565b60405180910390f35b610113600480360381019061010e919061127c565b6107e9565b005b61011d610969565b60405161012a9190611261565b60405180910390f35b61014d6004803603810190610148919061127c565b610993565b005b606560009054906101000a900473ffffffffffffffffffffffffffffffffffffffff1681565b60008573ffffffffffffffffffffffffffffffffffffffff16630dfe16816040518163ffffffff1660e01b8152600401602060405180830381865afa1580156101c2573d6000803e3d6000fd5b505050506040513d601f19601f820116820180604052508101906101e691906112be565b905060008673ffffffffffffffffffffffffffffffffffffffff1663d21220a76040518163ffffffff1660e01b8152600401602060405180830381865afa158015610235573d6000803e3d6000fd5b505050506040513d601f19601f8201168201806040525081019061025991906112be565b90508573ffffffffffffffffffffffffffffffffffffffff168273ffffffffffffffffffffffffffffffffffffffff1614806102c057508573ffffffffffffffffffffffffffffffffffffffff168173ffffffffffffffffffffffffffffffffffffffff16145b6102ff576040517f08c379a00000000000000000000000000000000000000000000000000000000081526004016102f690611348565b60405180910390fd5b848673ffffffffffffffffffffffffffffffffffffffff166370a08231336040518263ffffffff1660e01b81526004016103399190611261565b602060405180830381865afa158015610356573d6000803e3d6000fd5b505050506040513d601f19601f8201168201806040525081019061037a919061137d565b10156103bb576040517f08c379a00000000000000000000000000000000000000000000000000000000081526004016103b2906113f6565b60405180910390fd5b6103e83330878973ffffffffffffffffffffffffffffffffffffffff16610aed909392919063ffffffff16565b60008273ffffffffffffffffffffffffffffffffffffffff168773ffffffffffffffffffffffffffffffffffffffff16146104235782610425565b815b905061045387606560009054906101000a900473ffffffffffffffffffffffffffffffffffffffff16610c26565b61047f81606560009054906101000a900473ffffffffffffffffffffffffffffffffffffffff16610c26565b606060006002886104909190611474565b90506000600267ffffffffffffffff8111156104af576104ae6114a5565b5b6040519080825280602002602001820160405280156104dd5781602001602082028036833780820191505090505b50905089816000815181106104f5576104f46114d4565b5b602002602001019073ffffffffffffffffffffffffffffffffffffffff16908173ffffffffffffffffffffffffffffffffffffffff16815250508381600181518110610544576105436114d4565b5b602002602001019073ffffffffffffffffffffffffffffffffffffffff16908173ffffffffffffffffffffffffffffffffffffffff1681525050606560009054906101000a900473ffffffffffffffffffffffffffffffffffffffff1673ffffffffffffffffffffffffffffffffffffffff166338ed173983600184308c6040518663ffffffff1660e01b81526004016105e295949392919061160b565b6000604051808303816000875af1158015610601573d6000803e3d6000fd5b505050506040513d6000823e3d601f19601f8201168201806040525081019061062a919061178f565b925050606560009054906101000a900473ffffffffffffffffffffffffffffffffffffffff1673ffffffffffffffffffffffffffffffffffffffff1663e8e337008a8584866001885161067d91906117d8565b8151811061068e5761068d6114d4565b5b60200260200101516000808e8e6040518963ffffffff1660e01b81526004016106be989796959493929190611847565b6060604051808303816000875af11580156106dd573d6000803e3d6000fd5b505050506040513d601f19601f8201168201806040525081019061070191906118c5565b50505050505050505050505050565b610718610d18565b6107226000610d96565b565b603460009054906101000a900473ffffffffffffffffffffffffffffffffffffffff1673ffffffffffffffffffffffffffffffffffffffff163373ffffffffffffffffffffffffffffffffffffffff16146107b4576040517f08c379a00000000000000000000000000000000000000000000000000000000081526004016107ab9061198a565b60405180910390fd5b6107bd33610d96565b565b6000603360009054906101000a900473ffffffffffffffffffffffffffffffffffffffff16905090565b60008060019054906101000a900460ff1615905080801561081a5750600160008054906101000a900460ff1660ff16105b80610847575061082930610e5c565b1580156108465750600160008054906101000a900460ff1660ff16145b5b610886576040517f08c379a000000000000000000000000000000000000000000000000000000000815260040161087d90611a1c565b60405180910390fd5b60016000806101000a81548160ff021916908360ff16021790555080156108c3576001600060016101000a81548160ff0219169083151502179055505b6108cb610e7f565b81606560006101000a81548173ffffffffffffffffffffffffffffffffffffffff021916908373ffffffffffffffffffffffffffffffffffffffff16021790555080156109655760008060016101000a81548160ff0219169083151502179055507f7f26b83ff96e1f2b6a682f133852f6798a09c465da95921460cefb3847402498600160405161095c9190611a7a565b60405180910390a15b5050565b6000603460009054906101000a900473ffffffffffffffffffffffffffffffffffffffff16905090565b61099b610d18565b600073ffffffffffffffffffffffffffffffffffffffff168173ffffffffffffffffffffffffffffffffffffffff161415610a0b576040517f08c379a0000000000000000000000000000000000000000000000000000000008152600401610a0290611b07565b60405180910390fd5b80603460006101000a81548173ffffffffffffffffffffffffffffffffffffffff021916908373ffffffffffffffffffffffffffffffffffffffff160217905550603460009054906101000a900473ffffffffffffffffffffffffffffffffffffffff1673ffffffffffffffffffffffffffffffffffffffff16603360009054906101000a900473ffffffffffffffffffffffffffffffffffffffff1673ffffffffffffffffffffffffffffffffffffffff167f38d16b8cac22d99fc7c124b9cd0de2d3fa1faef420bfe791d8c362d765e2270060405160405180910390a350565b6000808573ffffffffffffffffffffffffffffffffffffffff166323b872dd868686604051602401610b2193929190611b27565b6040516020818303038152906040529060e01b6020820180517bffffffffffffffffffffffffffffffffffffffffffffffffffffffff8381831617835250505050604051610b6f9190611bd8565b6000604051808303816000865af19150503d8060008114610bac576040519150601f19603f3d011682016040523d82523d6000602084013e610bb1565b606091505b5091509150818015610bdf5750600081511480610bde575080806020019051810190610bdd9190611c27565b5b5b610c1e576040517f08c379a0000000000000000000000000000000000000000000000000000000008152600401610c1590611ca0565b60405180910390fd5b505050505050565b7fffffffffffffffffffffffffffffffffffffffffffffffffffffffffffffffff8273ffffffffffffffffffffffffffffffffffffffff1663dd62ed3e30846040518363ffffffff1660e01b8152600401610c82929190611cc0565b602060405180830381865afa158015610c9f573d6000803e3d6000fd5b505050506040513d601f19601f82011682018060405250810190610cc3919061137d565b14610d1457610d13817fffffffffffffffffffffffffffffffffffffffffffffffffffffffffffffffff8473ffffffffffffffffffffffffffffffffffffffff16610ed89092919063ffffffff16565b5b5050565b610d2061100e565b73ffffffffffffffffffffffffffffffffffffffff16610d3e6107bf565b73ffffffffffffffffffffffffffffffffffffffff1614610d94576040517f08c379a0000000000000000000000000000000000000000000000000000000008152600401610d8b90611d35565b60405180910390fd5b565b6000603360009054906101000a900473ffffffffffffffffffffffffffffffffffffffff16905081603360006101000a81548173ffffffffffffffffffffffffffffffffffffffff021916908373ffffffffffffffffffffffffffffffffffffffff1602179055508173ffffffffffffffffffffffffffffffffffffffff168173ffffffffffffffffffffffffffffffffffffffff167f8be0079c531659141344cd1fd0a4f28419497f9722a3daafe3b4186f6b6457e060405160405180910390a35050565b6000808273ffffffffffffffffffffffffffffffffffffffff163b119050919050565b600060019054906101000a900460ff16610ece576040517f08c379a0000000000000000000000000000000000000000000000000000000008152600401610ec590611dc7565b60405180910390fd5b610ed6611016565b565b6000808473ffffffffffffffffffffffffffffffffffffffff1663095ea7b38585604051602401610f0a929190611de7565b6040516020818303038152906040529060e01b6020820180517bffffffffffffffffffffffffffffffffffffffffffffffffffffffff8381831617835250505050604051610f589190611bd8565b6000604051808303816000865af19150503d8060008114610f95576040519150601f19603f3d011682016040523d82523d6000602084013e610f9a565b606091505b5091509150818015610fc85750600081511480610fc7575080806020019051810190610fc69190611c27565b5b5b611007576040517f08c379a0000000000000000000000000000000000000000000000000000000008152600401610ffe90611e5c565b60405180910390fd5b5050505050565b600033905090565b600060019054906101000a900460ff16611065576040517f08c379a000000000000000000000000000000000000000000000000000000000815260040161105c90611dc7565b60405180910390fd5b61107561107061100e565b610d96565b565b600073ffffffffffffffffffffffffffffffffffffffff82169050919050565b6000819050919050565b60006110bc6110b76110b284611077565b611097565b611077565b9050919050565b60006110ce826110a1565b9050919050565b60006110e0826110c3565b9050919050565b6110f0816110d5565b82525050565b600060208201905061110b60008301846110e7565b92915050565b6000604051905090565b600080fd5b600080fd5b600061113082611077565b9050919050565b600061114282611125565b9050919050565b61115281611137565b811461115d57600080fd5b50565b60008135905061116f81611149565b92915050565b61117e81611125565b811461118957600080fd5b50565b60008135905061119b81611175565b92915050565b6000819050919050565b6111b4816111a1565b81146111bf57600080fd5b50565b6000813590506111d1816111ab565b92915050565b600080600080600060a086880312156111f3576111f261111b565b5b600061120188828901611160565b95505060206112128882890161118c565b9450506040611223888289016111c2565b93505060606112348882890161118c565b9250506080611245888289016111c2565b9150509295509295909350565b61125b81611125565b82525050565b60006020820190506112766000830184611252565b92915050565b6000602082840312156112925761129161111b565b5b60006112a08482850161118c565b91505092915050565b6000815190506112b881611175565b92915050565b6000602082840312156112d4576112d361111b565b5b60006112e2848285016112a9565b91505092915050565b600082825260208201905092915050565b7f48656c706572203a20696e76616c696420546f6b656e00000000000000000000600082015250565b60006113326016836112eb565b915061133d826112fc565b602082019050919050565b6000602082019050818103600083015261136181611325565b9050919050565b600081519050611377816111ab565b92915050565b6000602082840312156113935761139261111b565b5b60006113a184828501611368565b91505092915050565b7f48656c706572203a20696e73756666696369656e7420416d6f756e7400000000600082015250565b60006113e0601c836112eb565b91506113eb826113aa565b602082019050919050565b6000602082019050818103600083015261140f816113d3565b9050919050565b7f4e487b7100000000000000000000000000000000000000000000000000000000600052601260045260246000fd5b7f4e487b7100000000000000000000000000000000000000000000000000000000600052601160045260246000fd5b600061147f826111a1565b915061148a836111a1565b92508261149a57611499611416565b5b828204905092915050565b7f4e487b7100000000000000000000000000000000000000000000000000000000600052604160045260246000fd5b7f4e487b7100000000000000000000000000000000000000000000000000000000600052603260045260246000fd5b61150c816111a1565b82525050565b6000819050919050565b600061153761153261152d84611512565b611097565b6111a1565b9050919050565b6115478161151c565b82525050565b600081519050919050565b600082825260208201905092915050565b6000819050602082019050919050565b61158281611125565b82525050565b60006115948383611579565b60208301905092915050565b6000602082019050919050565b60006115b88261154d565b6115c28185611558565b93506115cd83611569565b8060005b838110156115fe5781516115e58882611588565b97506115f0836115a0565b9250506001810190506115d1565b5085935050505092915050565b600060a0820190506116206000830188611503565b61162d602083018761153e565b818103604083015261163f81866115ad565b905061164e6060830185611252565b61165b6080830184611503565b9695505050505050565b600080fd5b6000601f19601f8301169050919050565b6116848261166a565b810181811067ffffffffffffffff821117156116a3576116a26114a5565b5b80604052505050565b60006116b6611111565b90506116c2828261167b565b919050565b600067ffffffffffffffff8211156116e2576116e16114a5565b5b602082029050602081019050919050565b600080fd5b600061170b611706846116c7565b6116ac565b9050808382526020820190506020840283018581111561172e5761172d6116f3565b5b835b8181101561175757806117438882611368565b845260208401935050602081019050611730565b5050509392505050565b600082601f83011261177657611775611665565b5b81516117868482602086016116f8565b91505092915050565b6000602082840312156117a5576117a461111b565b5b600082015167ffffffffffffffff8111156117c3576117c2611120565b5b6117cf84828501611761565b91505092915050565b60006117e3826111a1565b91506117ee836111a1565b92508282101561180157611800611445565b5b828203905092915050565b6000819050919050565b600061183161182c6118278461180c565b611097565b6111a1565b9050919050565b61184181611816565b82525050565b60006101008201905061185d600083018b611252565b61186a602083018a611252565b6118776040830189611503565b6118846060830188611503565b6118916080830187611838565b61189e60a0830186611838565b6118ab60c0830185611252565b6118b860e0830184611503565b9998505050505050505050565b6000806000606084860312156118de576118dd61111b565b5b60006118ec86828701611368565b93505060206118fd86828701611368565b925050604061190e86828701611368565b9150509250925092565b7f4f776e61626c653a206f6e6c792070656e64696e67206f776e65722063616e2060008201527f6163636570740000000000000000000000000000000000000000000000000000602082015250565b60006119746026836112eb565b915061197f82611918565b604082019050919050565b600060208201905081810360008301526119a381611967565b9050919050565b7f496e697469616c697a61626c653a20636f6e747261637420697320616c72656160008201527f647920696e697469616c697a6564000000000000000000000000000000000000602082015250565b6000611a06602e836112eb565b9150611a11826119aa565b604082019050919050565b60006020820190508181036000830152611a35816119f9565b9050919050565b600060ff82169050919050565b6000611a64611a5f611a5a84611512565b611097565b611a3c565b9050919050565b611a7481611a49565b82525050565b6000602082019050611a8f6000830184611a6b565b92915050565b7f4f776e61626c653a206e6577206f776e657220697320746865207a65726f206160008201527f6464726573730000000000000000000000000000000000000000000000000000602082015250565b6000611af16026836112eb565b9150611afc82611a95565b604082019050919050565b60006020820190508181036000830152611b2081611ae4565b9050919050565b6000606082019050611b3c6000830186611252565b611b496020830185611252565b611b566040830184611503565b949350505050565b600081519050919050565b600081905092915050565b60005b83811015611b92578082015181840152602081019050611b77565b83811115611ba1576000848401525b50505050565b6000611bb282611b5e565b611bbc8185611b69565b9350611bcc818560208601611b74565b80840191505092915050565b6000611be48284611ba7565b915081905092915050565b60008115159050919050565b611c0481611bef565b8114611c0f57600080fd5b50565b600081519050611c2181611bfb565b92915050565b600060208284031215611c3d57611c3c61111b565b5b6000611c4b84828501611c12565b91505092915050565b7f5361666545524332303a205452414e534645525f46524f4d5f4641494c454400600082015250565b6000611c8a601f836112eb565b9150611c9582611c54565b602082019050919050565b60006020820190508181036000830152611cb981611c7d565b9050919050565b6000604082019050611cd56000830185611252565b611ce26020830184611252565b9392505050565b7f4f776e61626c653a2063616c6c6572206973206e6f7420746865206f776e6572600082015250565b6000611d1f6020836112eb565b9150611d2a82611ce9565b602082019050919050565b60006020820190508181036000830152611d4e81611d12565b9050919050565b7f496e697469616c697a61626c653a20636f6e7472616374206973206e6f74206960008201527f6e697469616c697a696e67000000000000000000000000000000000000000000602082015250565b6000611db1602b836112eb565b9150611dbc82611d55565b604082019050919050565b60006020820190508181036000830152611de081611da4565b9050919050565b6000604082019050611dfc6000830185611252565b611e096020830184611503565b9392505050565b7f5361666545524332303a20415050524f56455f4641494c454400000000000000600082015250565b6000611e466019836112eb565b9150611e5182611e10565b602082019050919050565b60006020820190508181036000830152611e7581611e39565b905091905056fea2646970667358221220bcefb3c843b4bbcce7a8e7324f53934f1527106c02d75b5ad7cda3abee4a792c64736f6c634300080b0033",
  "linkReferences": {},
  "deployedLinkReferences": {}
}